:020000040800F2
:1000000000130020850200086F480008B73E000872
:100010006D4800087919000895510008000000009B
:10002000000000000000000000000000134900086C
:10003000391A00080000000011490008154900089D
:100040009F0200089F0200089F0200089F0200080C
:100050009F0200089F0200089F0200089F020008FC
:100060009F0200089F0200089F0200089F020008EC
:100070007D1900089F020008891900089F020008E6
:100080009F0200089F0200089F0200089F020008CC
:100090009F0200089F0200089F0200089F020008BC
:1000A0009F020008C14900089F0200089F02000843
:1000B0009F0200089F0200089F0200089F0200089C
:1000C0009F0200089F0200089F0200089F0200088C
:1000D0009F0200089F0200089F0200087D5100084F
:1000E0009F0200089F0200089F0200089F0200086C
:1000F0009F0200089F0200089F0200089F0200085C
:100100009F0200089F0200089F0200089F0200084B
:100110009F0200089F020008CD4900089F020008C6
:100120009F0200089F0200089F0200089F0200082B
:100130009F02000800000000000000009F0200086D
:100140009F0200089F0200089F0200089F0200080B
:100150009F0200089F0200089F02000889510008C2
:100160009F0200089F0200089F0200089F020008EB
:100170009F0200089F0200089F0200080000000084
:10018000000000009F0200080000000000000000C6
:100190009F02000800000000000000009F0200080D
:1001A0000000000000000000000000009F020008A6
:1001B0009F0200089F0200089F0200089F0200089B
:1001C0009F02000800F002F800F04CF80AA090E846
:1001D000000C82448344AAF10107DA4501D100F002
:1001E00041F8AFF2090EBAE80F0013F0010F18BF83
:1001F000FB1A43F0010318479C630000BC63000036
:10020000103A24BF78C878C1FAD8520724BF30C842
:1002100030C144BF04680C60704700000023002414
:1002200000250026103A28BF78C1FBD8520728BF06
:1002300030C148BF0B607047662906F046816429CB
:1002400000F00E81002070471FB506F034F900F071
:10025000E9FC04000020002105F062FCE0601FBD05
:1002600010B510BD00F0E2FD1146FFF7EDFF05F0FF
:100270009DF900F000FE03B4FFF7F2FF03BC00F0AD
:1002800043FE00000948804709480047FEE7FEE7B3
:10029000FEE7FEE7FEE7FEE7FEE7FEE7FEE7FEE736
:1002A00004480549054A064B70470000B14900085B
:1002B000C5010008000D002000130020000F0020E1
:1002C000000F002053EA020C00F069802DE9F04B8A
:1002D0004FF00006002B1FBFB3FA83F503FA05F4B5
:1002E00024FA05F65E4012BF1643B2FA82F502FA0E
:1002F00005F4C5F120051EBF22FA05FC44EA0C04F2
:10030000203556EA044C4FEA144418BF641C4FF0E1
:1003100000084FF00009904271EB030C39D300291B
:1003200019BFB1FA81F701FA07F6B0FA80F700FABF
:1003300007F6C7F120071EBF20FA07FC46EA0C06A5
:100340002037B6FBF4FCA7EB0507103F07F01F0BA7
:10035000CBF120060CFA0BFB2CFA06F644BFB34691
:100360000026202FA4BF5E464FF0000B5BEA060C70
:1003700008BF4FF0010B19EB0B09ABFB027C48EBFC
:100380000608C01B06FB02CC0BFB03CC71EB0C0177
:10039000C1E70B46024641464846BDE8F08B13B51F
:1003A0004FF000004FF00001AFF30080BDE81C40AB
:1003B000704700000FB41CB5074B06AA7B44694682
:1003C0000090059800F00DFC0020694600F01CFC30
:1003D0001CBC5DF814FB0000490800000FB41CB5FC
:1003E0000C0007AA009001D02044401E074B7B441C
:1003F00069460190069800F0F4FB002C03D0694692
:10040000002000F001FC1CBC5DF814FB210800007A
:1004100070B5044685690068C10601D5302600E044
:100420002026C00707D070BDD4E90121304690478F
:10043000206A401C20626D1EF6D570BD70B5044662
:1004400085690078C00707D170BDD4E9012120205B
:100450009047206A401C20626D1EF6D570BD0000DA
:100460002DE9F0410646002410687529314616A58D
:1004700010D0AFF30080002802DA404213A507E055
:1004800031688A0701D512A502E0490704D511A5F4
:10049000012401E0AFF3008000210A2206F12407C5
:1004A00009E0B0FBF2FCB0FBF2F302FB1C003030C1
:1004B00078541846491C0028F3D123462A46304672
:1004C000BDE8F04100F020B9000000002D00000060
:1004D0002B000000200000002DE9F05F8946044653
:1004E0004FF0000ADFF874B1FB44C0F820A02046AA
:1004F000E1688847002874D0252806D0D4E9012176
:100500009047206A401C2062F1E700265F462046A3
:10051000E16888472028054607DB312D05D2781988
:1005200010F8200C08B10643F1E7B00701D526F01A
:100530000406C4F81CA00027C4F818A02A2D09D06E
:10054000284604F0B3FF38B304EB8708303DC8F801
:10055000185019E059F8041B204604EB87029161FA
:10056000E1688847012F054618D1E069002820DAA4
:1005700026F020061DE0D8F8180000EB800005EBFF
:1005800040003038C8F818002046E1688847054622
:1005900004F08CFF0028EED1012F0AD02E2D08D1B7
:1005A0002046E16888477F1C0546022F46F020065A
:1005B000C4DBA069002803DA404246F00106A061CE
:1005C000F00701D026F010066C2D0BD0682D09D055
:1005D0004C2D39D06A2D35D0742D35D07A2D33D0AD
:1005E00016E038E0E1682F4620468847B8420546C5
:1005F00009D16C2F26D04FF48060E1680643204675
:100600008847054604E06C2F1AD04FF480700643EB
:100610000DB3A5F14100192802D8203546F4006633
:100620004A462946204626604E46FFF705FE80B121
:1006300001280BD0F61D26F0070000F1080956E747
:100640004020E4E78020D8E70020D6E706F104093F
:100650004DE7284652E7206ABDE8F09F026000009F
:1006600010B5431C02E010F8011B71B18107FAD1EB
:100670004FF0013202C88C1A8C4314EAC211F9D02F
:10068000C01A0A0603D0C01E10BDC01A10BD0A044D
:1006900001D0801E10BD0902FCD0401E10BD4FF0DD
:1006A000000200B5134694469646203922BFA0E8C2
:1006B0000C50A0E80C50B1F12001BFF4F7AF0907CE
:1006C00028BFA0E80C5048BF0CC05DF804EB8900BF
:1006D00028BF40F8042B08BF704748BF20F8022B02
:1006E00011F0804F18BF00F8012B7047704770471A
:1006F000704710B500F09AFA006810BD10B50446B6
:1007000000F094FA046010BD2DE9F0470D469946BB
:100710009246044600F124080168880604D5E06981
:1007200021F01001216000E00120A84201DD471BFB
:1007300000E00027A1697A1902EB0900081AA061FC
:100740002078C00602D42046FFF762FE002608E0AB
:10075000D4E901211AF806009047206A401C761C53
:1007600020624E45F4DB2078C0060AD52046FFF70C
:100770004FFE06E0D4E9012130209047206A401C5A
:100780002062381EA7F10107F4DC07E0D4E901215B
:1007900018F805009047206A401C2062281EA5F129
:1007A0000105F3DC2046FFF749FE2078000602D55C
:1007B0000220BDE8F0870120FBE770472DE9FF4FDD
:1007C0000C461E464FF0FF378BB0D2E90001DDF832
:1007D00060800A908A46C1F30A5505B93D4600215A
:1007E00008464FF00000BAF1000F00F4400005DAAF
:1007F00000EB80004FF4400101EA50004FEA9059AD
:10080000B9F1010F00DDB9460A9850EA4A000ED04E
:1008100044F61050A5F2FF3545432F14B8F1000FF0
:100820001ED07542291E1EDDC9F100021CE0B8F180
:10083000010F4FF0000001D0302103E0F24305E04A
:100840002154401CB042FBDB3046002200212154E1
:100850000B99C1F80880C1E900200FB0BDE8F08F06
:10086000BD1B6D1CDEE74A4600DA694206A800F0AF
:1008700067FA06AB93E8070003AB83E8070050462E
:100880000A9900F048FB8DE80700A0F500501F38DA
:1008900000900398002D0ADD42F21F014A460844E9
:1008A000002303A90390684600F0B1FD09E0A0F51C
:1008B00000504A461F38002303A90390684600F001
:1008C000BBFD8DE807000004000C03D04FF0FF30A3
:1008D000410800E01046B8F1000F03D0002200925A
:1008E00015461EE0751E05D400F0A4F9303262559D
:1008F0006D1EF9D5B3460122084302D000227F1CA9
:1009000004E02078302801D100227F1E002A0997B8
:1009100084D01DE0112D07DA00F08CF930326255D9
:100920006D1C50EA0102F5D1084302D00098C8B10D
:100930000EE00021681E05E0235C625C63542254D3
:10094000401E491C8142F7DBAB46A81B401E0990A4
:10095000002004F80B000B98099AC0F80880C0E941
:10096000002B7AE711264FF0000857E72DE9F04FEA
:1009700088460446D21D22F0070191B0D1E900015A
:10098000CDE90A0104F007FC02460B98C00F01D024
:100990002D2007E02068810701D52B2002E02021CF
:1009A00001EAC000032A099001D0072A05DB0346AB
:1009B0004146204600F084F90BE12078800601D5FD
:1009C000E06900E00620B8F1650F814606D0B8F175
:1009D000660F18D0B8F1670F70D131E00020B9F17F
:1009E000110F009001DB112301E009F101030AAAB4
:1009F00001A90CA8FFF7E2FEDDE90C70002609F161
:100A00000105834647E001204B4600904FF0004728
:100A10000AAA01A90CA8FFF7D1FEDDE90DB00C99D7
:100A20005D46002610B909F101000D18B9EB05006B
:100A300003D4C0F1FF3609F10105A5EB09002BE055
:100A4000B9F1010F01DA4FF001090020B9F1110FDE
:100A50000090484601DD112300E003460AAA01A9DF
:100A60000CA8FFF7ABFEDDE90C704D46002683466F
:100A7000207800070AD4AB4500DA5D4601A8012DB5
:100A800004DD411911F8011C302907D04F4502DA65
:100A900017F1040F04DA012082460FE06D1EEEE725
:100AA000002F02DCED1B3E4403E0781CA84200DD71
:100AB0007D1CB81B00F1010A4FF0004720780007A9
:100AC00003D4AA4501DB4FF0FF3A0021B7F1004FF4
:100AD0000DF143088DF8431024D002202B23002F62
:100AE00001DA7F422D230A21021EA0F1010000DC61
:100AF0005FB197FBF1FC97FBF1F201FB1C7C174601
:100B00000CF1300C08F801CDEEE7A8F101000370FC
:100B10002188090501D5452100E06521A0F10108E2
:100B200000F8011C09980FA9A1EB0807FF1D00B1EF
:100B30000120411901EBEA70A1693844081A401EEE
:100B4000A0612078C00602D42046FFF761FC099816
:100B500028B1D4E901219047206A401C2062207806
:100B6000C00622D52046FFF753FC1EE0002E04DB12
:100B7000B34502DD01A8805D00E03020D4E9012109
:100B80009047206A401C2062761CAAF101005FEAAF
:100B9000000A0AD100F046F8C0680168405CD4E958
:100BA00001219047206A401C2062281EA5F1010502
:100BB000DCDC07E0D4E9012118F8010B9047206A3A
:100BC000401C2062381EA7F10107F3DC2046FFF726
:100BD00035FC032011B041E601694A1C0261087826
:100BE000704700B58FB0CDE901310021059105496D
:100BF0007944CDE9031011466846FFF76DFC0FB04C
:100C000000BD0000E5FFFFFF0A6802F8010B0A6063
:100C10007047D1E900239A4202D2531C0B60107036
:100C20007047000000487047C00C00200048704723
:100C3000A00C002030B5B0F10A024FEA900E71F11D
:100C400000034EEA817EB0EB0E0061EB91014FEAAA
:100C5000101E4EEA017E10EB0E0041EB11114FEA1F
:100C6000102E4EEA016E10EB0E0041EB11214FEAFF
:100C7000104E4EEA014E10EB0E0041EB11414018B0
:100C800041F100014FEAD00040EA41704FEAD10142
:100C900010EB80054FEA810444EA907444EB0104B0
:100CA0006D1944EB0404521BA3414FF0000348BFED
:100CB0000A3200D530BD401C41F1000130BD0000BA
:100CC0002DE9F0411F46044603260168072A01F476
:100CD000006004DB08B116A505E016A503E008B125
:100CE00015A500E015A521F010002060A069C01E28
:100CF000A0610FB1401EA0612046FFF789FB4FB1F4
:100D0000D4E9012138469047206A401C2062C01C6B
:100D1000206206E0206AFAE7D4E9012115F8010B08
:100D20009047761EF8D22046FFF788FBBDE8F08199
:100D30004E414E006E616E00494E4600696E66007F
:100D40002DE9F047814616468AB0354878440DC8EB
:100D50008DE80D0032487844801C03AC0DC884E84F
:100D60000D0041F69B300844372190FBF1F290FBD7
:100D7000F1F5A5F1800501FB12041B3C02D564428C
:100D8000012000E00020DFF898A080460027FA4408
:100D9000AAF1BE0A0EE0E0070AD03246684607EB29
:100DA000470101230AEB810100F046FB8DE80700B3
:100DB00064107F1C002CEED1194F7F44AE3F19E028
:100DC000E80715D007EB04100DF1180A90E80E00A3
:100DD0008AE80E00C068F04201D1981908903246A6
:100DE000012306A903A800F027FB03AB83E8070053
:100DF0006D10641C002DE3D14FF0010332466946AB
:100E0000B8F1000F03A802D000F001FB01E000F0F0
:100E100013FBC9E90001C9F808200AB0BDE8F08752
:100E20002C58000000487047A00C00207546FFF7C2
:100E3000F9FFAE4605006946534620F00700854697
:100E400018B020B5FFF72CFABDE820404FF000069F
:100E50004FF000074FF000084FF0000B21F00701A2
:100E6000AC46ACE8C009ACE8C009ACE8C009ACE8E5
:100E7000C0098D46704710B50446AFF30080204688
:100E8000BDE81040FFF7F7B94FF0013C50F8042BD4
:100E900051F8043B9A4221D1A2EB0C03934313EA8D
:100EA000CC1317D150F8042B51F8043B9A4215D1BA
:100EB000A2EB0C03934313EACC130BD150F8042B91
:100EC00051F8043B9A4209D1A2EB0C03934313EA75
:100ED000CC13DBD04FF00000704700BFD01A01BA2E
:100EE000B1FA81F101F0180122FA01F0CB40C1F111
:100EF0002001DBB2C0B2C01A2CFA01F3D11A91431F
:100F000011EAC311E6D1704701491820ABBEFEE7D4
:100F10002600020070475FEA400C08BF91F0000F06
:100F20004FEA8C234FEAC12243EA51514FEA1C5049
:100F300018BF00F5F0404FEA300018BF41F0004103
:100F40005FEA6C5C00F02980BCF1FF3F08BF40F015
:100F500080407047130C06BF12044FF0100C4FF086
:100F6000000C130E04BF12020CF1080C130F04BF87
:100F700012010CF1040C930F04BF92000CF1020C4F
:100F8000D30F04BF52000CF1010C11464FF00002C8
:100F9000A0F11F00A0EB0C00704711F0004F08BF3C
:100FA000704731F000413FF4D5AF0B0C06BF090488
:100FB0004FF0100C4FF0000C0B0E04BF09020CF1A7
:100FC000080C0B0F04BF09010CF1040C8B0F04BFBC
:100FD00089000CF1020CCB0F04BF49000CF1010C8D
:100FE000CCF12003A0EB0C0022FA03F302FA0CF27E
:100FF00041EA030100F10100704720F07F4C80EAD4
:10100000030023F07F47ACEB070303F57C5300F0AC
:10101000004003F1FF032DE980494FEA154B09B465
:101020004FEA144325EA0B4E24EA03480FF2042644
:1010300006EB132749083E785FEA320203FB066796
:10104000C7F5000707FB06F64FEA54374FEAD646C6
:1010500006F1020607FB066CCCF1005C4FEA1C4768
:101060002CEA074C07FB06F40CFB06F504EB1546CF
:101070004FEA961634BF00204FF000404FEAD137B8
:1010800006FB07FC4FEA1C4C0CFB0BF7D21B03FBC7
:101090000CF761EB07010CFB0EF7B0EB074072EBAE
:1010A00017420CFB08F734BFA2EB0742B2EB074232
:1010B00061EB17414FEA0C444FEA910706FB07FC2E
:1010C0004FEA1C4C0CFB0BF7B0EBC74072EB5732EE
:1010D00003FB0CF734BFA2EBC742B2EBC74261EB94
:1010E00057310CFB0EF7B0EBC70072EB57720CFBDD
:1010F00008F734BFA2EBC702B2EBC70261EB57712E
:10110000039F4FEA816141EA921104EBCC044FEA5C
:10111000D1374FEA826206FB07FC42EA90124FEA9F
:1011200080604FEA1C4C0CFB0BF7D21B03FB0CF747
:1011300061EB07010CFB0EF7B0EB074072EB1742B7
:101140000CFB08F734BFA2EB0742B2EB074261EB9E
:1011500017414FEA8C554FEA910704EB9C2406FB9C
:1011600007FC4FEA1C4C0CFB0BF7B0EBC74072EBD3
:10117000573203FB0CF734BFA2EBC742B2EBC742B6
:1011800061EB57310CFB0EF7B0EBC70072EB5772F7
:101190000CFB08F734BFA2EBC702B2EBC70261EB4E
:1011A000577115EB4C254FEA816141EA92114FEAE4
:1011B00082624FEAD13742EA901206FB07FC44F103
:1011C00000044FEA80604FEA1C4C0CFB0BF7D21B6B
:1011D00003FB0CF761EB07010CFB0EF7B0EB0740CC
:1011E00072EB17420CFB08F734BFA2EB0742B2EBDD
:1011F000074261EB174115EB1C154FEA813141EABB
:1012000092414FEA823242EA90424FEA80304FEAFE
:101210000C7644F1000448EA03434EEA0B484FF0D1
:10122000000EB2EB080C71EB030724BF624639468F
:101230004EEB0E0E4FF0000B0018524149414BEBA4
:101240000B0BB2EB080C71EB03077BF1000B24BF17
:10125000624639464EEB0E0E4FF0000B001852411D
:1012600049414BEB0B0BB2EB080C71EB03077BF125
:10127000000B24BF624639464EEB0E0E51EA0207C0
:1012800018BF46F0010616EB0E7655F1000254F138
:10129000000103D5BDE88901BDE80088BDE88901EA
:1012A000BDE80048B619524141EB0101A3F1010329
:1012B000704780807F7E7D7C7B7A797877767675C3
:1012C0007473727171706F6E6E6D6C6C6B6A6A693B
:1012D0006868676666656464636362616160605FD5
:1012E0005F5E5E5D5D5C5C5B5B5A5A59595858574E
:1012F00057565655555554545353525252515150B6
:1013000050504F4F4F4E4E4D4D4D4C4C4C4B4B4B08
:101310004A4A4A494949484848474747474646464E
:101320004545454444444443434343424242424189
:101330004141002B9C4630D477002BD01CB54FEA9E
:10134000370703B44FF010004FF01001BAF1000F4F
:1013500006D0BCF1000FDCBF40F0080040F00801EF
:101360004FF000000FBCBDE810400BF1010BBBF1CA
:10137000010F08BF5FEA170722BF12F1010211F146
:1013800001014FF0004143F1000300F0004043EA47
:1013900000007047F9D35708D0E746EA064613F134
:1013A000400F4FEA16461FDD13F1200FDFBF164333
:1013B0000A46002120335B42BED0C3F1200746EA33
:1013C000064602FA07F74FEA164646EA0706C3F151
:1013D000200722FA03F201FA07F721FA03F14FF08E
:1013E000000342EA0702A7E746EA020646EA064683
:1013F0004FEA164646EA0106BCBF46EA0646360CE8
:101400004FF000034FF000024FF0000194E72DE988
:10141000804C9A46934670B491E8380007C831EA88
:10142000400C48BF34EA430C03D5FFF7E6FDFFF755
:1014300080FFF0BCBDE8008C2DE9804C9A469346B5
:1014400070B491E8380007C810F0804F08BF13F05F
:10145000804F03D100F005F8FFF76BFFF0BCBDE84B
:10146000008C20F07F4780EA030023F07F4C07EBDD
:101470000C03A3F57C5300F00040A3F1FE0392F0AF
:10148000000F00F0B38095F0000F00F077802DE999
:1014900001494FEA11404FEA144621EA004800FB97
:1014A00006FC24EA064708FB06F607FB08F800FBE3
:1014B00007F718EB06484CEB164C4FEA124B18EBAB
:1014C00007484FEA15464CEB174022EA0B4E0BFB40
:1014D00006FC25EA06470EFB06F607FB0EFE0BFB95
:1014E00007F71EEB064E4CEB164C4FF000061EEBBA
:1014F000074E4CEB174B18EB0B0840F1000018EBB4
:101500000E0B58EB000840F100008F1A4FF000015D
:101510003CBFC943661B14BFB5EB040C00213CBFA4
:10152000C943F61B4FEA17444EEA8E0E27EA0445DC
:101530004FEA1C4704FB07622CEA074C05FB07F740
:101540000CFB05F604FB0CFC16EB074642EB1742BE
:1015500016EB0C4642EB1C421BEB060658EB020254
:10156000414146EA9E0601D5BDE80189B6195241BE
:1015700041EB0101A3F10103BDE801894FEA1445E4
:101580004FEA114724EA054621EA074C05FB07F418
:1015900006FB07F70CFB06F105FB0CFC11EB074102
:1015A00044EB17444FEA124711EB0C4144EB1C4447
:1015B00022EA074C05FB07F206FB07F70CFB06F6D1
:1015C00005FB0CFC16EB074642EB174216EB0C46EC
:1015D00042EB1C456A1854F1000148BF7047B61928
:1015E000524141EB0101A3F10103704795F0000F57
:1015F00037D04FEA11424FEA144721EA024624EA63
:10160000074C02FB07F106FB07F70CFB06F402FB95
:101610000CFC14EB074441EB17414FEA154714EB60
:101620000C4441EB1C4125EA074C02FB07F506FB85
:1016300007F70CFB06F602FB0CFC16EB074645EB26
:10164000174516EB0C4645EB1C42121951F10001EF
:1016500048BF7047B619524141EB0101A3F10103A4
:1016600070474FEA14454FEA114724EA054621EA3C
:10167000074C05FB07F106FB07F70CFB06F24FF0E2
:10168000000605FB0CFC12EB074241EB174112EB85
:101690000C4251EB1C4148BF7047921841EB0101CD
:1016A000A3F1010370470000464910B54A6822F4CF
:1016B00040324A604A6843681A434A6001684A688F
:1016C00022F480724A6001684A68036942EA032290
:1016D0004A6001684A6822F040724A6001684A68BC
:1016E00083681A434A6001688A6822F400628A604B
:1016F00001688A68C3681A438A60816A6FF0706201
:10170000D14201688A6822F070628A6001688A6842
:101710000CD0836A1A438A6001688A6822F04052BA
:101720008A6001688A68C36A1A4301E022F0405265
:101730008A6001688A6822F002028A6001688A6809
:10174000037E42EA43028A6090F820100029016873
:101750004A680FD042F400624A6001684A6822F485
:1017600060424A6001684A68174C436A04EB43339D
:101770001A4301E022F400624A600168CA6A22F456
:101780007002CA620168CA6A838B104C04EB03536F
:101790001A43CA6201688A6822F400728A6001688A
:1017A0008A6890F8303042EA43228A6001688A6889
:1017B00022F480628A6001688A68406942EA802077
:1017C000886010BD0023014000E0FFFF0000F0FF33
:1017D00070B5194CA5200122207082206070052070
:1017E000A0700020E07020716071A071E071222073
:1017F00020721249124802F055FA08B100F06AF955
:101800004FF4FA6000F0C0FC002561190E46642315
:1018100001220C4802F0A1FA314664230122084853
:1018200002F09BFA064802F030F82128FAD06D1C2D
:10183000EDB2092DE9D370BDF404002009000020A9
:10184000500B0020080B002010B52DED0C8BB0EED6
:10185000418AB0EE60AAB0EE40DAB0EE639AF0EEE4
:10186000438AF0EE62AAB0EE42CAF0EE61CAF0EE30
:10187000480AB0EE4A0A03F0C9FCDFED360A20EE52
:10188000200A10EE100A04F0A5FD9FED33BB53ECC7
:101890001B2B04F035FA04F059F92AEE0A0A09EE76
:1018A000900A08EE080A03F0D9FDF0EE400AB0EE07
:1018B0004D0A03F0ABFCDFED2A0A20EE200A10EE01
:1018C000100A04F087FD53EC1B2B04F019FA04F006
:1018D0003DF904EE900AB0EE491AF0EE6C0AB0EE53
:1018E000690A204802F087FC1F49B0EE491AF0EE61
:1018F0004C0A81ED000AB0EE640A1C4802F07BFC41
:1019000081ED010A91ED020A194ADFED1A0A0AEE89
:10191000890A10EE100A81ED020A904203DD30EED2
:10192000600A81ED020AB5EEC00AF1EE10FA03D2A8
:1019300030EE200A81ED020A30EE680AB0EEC00AED
:1019400010EE100AB0F17A5F01DAC1ED028ABDEC47
:101950000C8B10BD00003443182D4454FB2109406A
:10196000000034C3140000200C09002038000020BF
:101970000000B4430000B443FEE70000014800F05B
:1019800091BA0000980B0020014800F08BBA0000CB
:10199000F80B002001681823CAB2103AB2FBF3F228
:1019A000054B6FF30901032A9B5CC36500D9091D30
:1019B0008165084670470000CE64000810B50146F6
:1019C00000208B698A6A4FF0C07453B1B3F5005F91
:1019D00015D072B1012A0CD0022A0AD0032A09D1EB
:1019E00004E01AB1012A06D0022A03D1C96AC9014A
:1019F00000D5012010BDC96AA142FAD010BD002A4D
:101A0000F7D0012AF2D0022AF3D0032AF3D010BD76
:101A100030B50468256825F4802525600468636076
:101A20008368402B036803D099600068C26030BDB2
:101A30009A600068C16030BD704700000C4810B566
:101A40000068416A0B4A10681160081A04F0B0FA85
:101A50009FED091B53EC112B04F052F99FED081B6D
:101A600053EC112B04F04CF941EC100B10BD0000AD
:101A7000E80900200000002000000000006078401D
:101A80009A9999999999A93F0C4810B50068416AAB
:101A90000B4A50685160081A04F08AFA9FED091B3E
:101AA00053EC112B04F02CF99FED081B53EC112B78
:101AB00004F026F941EC100B10BD0000780A00205C
:101AC0000000002000000000006078409A99999979
:101AD0009999A93F72B6FEE778B50024009490F872
:101AE0003C20012A19D0012280F83C200A680723F3
:101AF0000568092A13D9EE680A3A02EB42029340BC
:101B00009E43EE600B788A680A3B03EB43039A40DE
:101B10000368DD682A43DA6010E0022078BD2E6990
:101B200002EB420293409E432E610B788A6803EBDE
:101B300043039A4003681D692A431A614A681F23B8
:101B4000072A13D205686E6B521E02EB8202934085
:101B50009E436E630A8893B20A79521E02EB820298
:101B600093400268556B2B43536327E005680D2AA9
:101B700012D22E6BD21F02EB820293409E432E6341
:101B80000B790A88DB1F92B203EB83039A40036848
:101B90001D6B2A431A6311E0EE6A0D3A02EB8202D2
:101BA00093409E43EE620B790A880D3B92B203EBA1
:101BB00083039A400368DD6A2A43DA621B4B056897
:101BC000194A9D420AD10D68122D07D1556825F496
:101BD00000055560556845F48005556005689D42CF
:101BE0001DD1134D0B68AB4201D0112B17D1536897
:101BF00023F480035360536843F40003536009687F
:101C0000A9420CD10B490C4A0968B1FBF2F101EB76
:101C10008101490000E0491E00910029FBD180F8B4
:101C20003C40002078BD000000230140002001401E
:101C300012000010A400002040420F0070B5040004
:101C40004FF0000503D0206C002610B107E0012002
:101C500070BD204600F01CF8666484F83C60206C7F
:101C6000C00610D4206C20F4885040F0020020649C
:101C70002046FFF719FD6664206C20F0020040F05A
:101C80000100206400E0012584F83C60284670BD16
:101C900010B586B0044614216846FEF700FD1149D0
:101CA000206888421CD110480021026842F48072EA
:101CB0000260006800F4807005900B4814380268D8
:101CC00042F001020260006800F00100059004206B
:101CD00000900320CDE901016946044800F066FA4E
:101CE00006B010BD00200140443802400000024010
:101CF00018B50021009190F83C20012A07D001225C
:101D000080F83C2002689368DB0702D011E00220D3
:101D100018BD936843F0010393602E4A2E4B12685E
:101D2000B2FBF3F202EB420200E0521E0092002AE4
:101D3000FBD102689368DB0742D0036C40F2016478
:101D4000A34343F48073036453685B0505D5036CB8
:101D500023F4005343F480530364036CDB0404D581
:101D6000436C23F00603436400E0416480F83C10B8
:101D70001A496FF02203136049680068CA061849BF
:101D800006D0884224D1816811F0405F13D01FE053
:101D90008842F8D0134A904203D1D1F80423D206E6
:101DA000F1D0114A904213D1D1F8041301F01F0170
:101DB0001029E8D30CE0816841F08041816007E0A0
:101DC000016C41F010010164416C41F0010141647A
:101DD000002018BDA400002040420F000023014055
:101DE0000020014000210140002201402DE9F04186
:101DF0000446876D00F0C8FA064694F835000025C1
:101E0000022806D08020606584F834500120BDE8A7
:101E1000F0812068016821F01601016020684169A5
:101E200021F080014161206C08B9A06C20B12068CC
:101E3000016821F0080101602068016821F00101BA
:101E400001600CE000F0A0FA801B052807D92020D3
:101E50006065032084F8350084F83450D7E72068A3
:101E60000068C007EED194F85C103F208840B8604D
:101E7000012084F8350084F834500020C7E790F83A
:101E80003510022903D080214165012070470521CA
:101E900080F835100068016821F001010160002020
:101EA000704700002DE9F84304464FF00009CDF8D3
:101EB000009063484FF41651A56D0068B0FBF1F730
:101EC0002E6894F85C10082000FA01F131420FD01E
:101ED00021680A6852070BD50A6822F004020A60DA
:101EE00094F85C108840A860606D40F00100606567
:101EF00094F85C104FF0010808FA01F0304208D065
:101F000021684969090604D5A860606D40F00200A7
:101F1000606594F85C1004208840304208D0216845
:101F20000968890704D5A860606D40F00400606509
:101F300094F85C1010208840304218D0216809685D
:101F4000090714D5A86020680168490304D5006812
:101F5000000308D5A16C07E00168C90503D4016836
:101F600021F008010160216C09B12046884794F8EE
:101F70005C1020208840304231D021680968C906B1
:101F80002DD5A86094F8350005282068016806D092
:101F9000490347D5006800031DD4616C1CE021F0A3
:101FA000160101602068416921F080014161206CC7
:101FB00008B9A06C20B12068016821F00801016017
:101FC00094F85C103F208840A86084F8358084F83D
:101FD0003490216D1FE0E16B09B120468847606DA8
:101FE00000282BD0606DC00714D0052084F8350080
:101FF0002068016821F0010101600098401C0090F8
:10200000B84203D820680068C007F6D184F835804C
:1020100084F83490E16C002910D001B02046BDE86E
:10202000F04308470168C905D5D4016821F01001C3
:10203000016084F8358084F83490CCE7BDE8F883FB
:10204000A40000202DE9F041044600F09DF9064669
:102050005CB1022084F83500002584F834502068F3
:10206000016821F0010101600DE00120BDE8F0816F
:1020700000F08AF9801B052805D92020606503201F
:1020800084F83500F2E720680068C007F0D12268C4
:10209000116820480140D4E901031843D4E903360C
:1020A0003343184363691843A3691843E36918432A
:1020B000236A18430843616A042903D1D4E90B1346
:1020C00019430843106020684069666A20F00701E0
:1020D00030460E43012704280CD1A06A0643E06A6B
:1020E00040B12046FFF76AFC20B14020606584F8CB
:1020F0003570BAE7206846612046FFF74BFC94F83C
:102100005C203F2191408160656584F83570002036
:10211000ACE700003F8010F02DE9F0410446866DE9
:1021200090F83400002501280DD0012084F83400F7
:1021300094F835700020012F07D084F83400022570
:102140002846BDE8F0810220FBE7022784F83570BD
:1021500060652046FFF75CFC94F85C103F208840E7
:10216000B0602068016841F016010160206C20B168
:102170002068016841F0080101602068016841F0B1
:1021800001010160DCE7000070B5044600F0FCF8D6
:102190000546601C02D004480078044400F0F4F8BE
:1021A000401BA042FAD370BD980000202DE9F84FE3
:1021B000DFF8ACA10022012403254FF00F090AF13A
:1021C000040BAAF1040E00BF0B6804FA02F63340B8
:1021D000B3426ED10F7907F00307012F01D0022F10
:1021E00016D187684FEA420805FA08FC27EA0C076F
:1021F000D1F80CC00CFA08FC4CEA070CC0F808C077
:102200004768B7430E79C6F3001696403E434660D2
:102210000E79F643B6070AD0C6684FEA420C05FAB3
:102220000CF7BE438F6807FA0CF73743C7600E7987
:1022300006F00306022E10D1D60800EB8608D8F867
:10224000206057074FEAD76C09FA0CF7BE430F69B5
:1022500007FA0CF73743C8F8207006684FEA420CBB
:1022600005FA0CF7BE430F7907F0030707FA0CF7DE
:10227000374307604E6816F4403F6BD0394E3768DD
:1022800047F480473760366822F0030706F480463B
:102290000096354E07EB060CDCF8086897074FEA06
:1022A000177809FA08F7BE43304FB84202D1002729
:1022B0001FE04FE02E4FB84201D1012719E02D4F0A
:1022C000B84201D1022714E02B4FB84201D10327B5
:1022D0000FE02A4FB84201D104270AE0284FB84244
:1022E00001D1052705E0274FB84201D1062700E0BC
:1022F000072707FA08F73743CCF80878DAF80060C0
:102300005746D1F804C09E435FEACC2C00D51E434B
:102310003E60DBF800605F46D1F804C09E435FEA90
:102320008C2C00D51E433E60DEF800607746D1F865
:1023300004C09E435FEA8C3C00D51E433E60084FBC
:10234000083F3E68D1F804C09E435FEACC3C00D50C
:102350001E433E60521C102AFFF436AFBDE8F88FD2
:10236000083C014044380240003001400000024077
:102370000004024000080240000C0240001002402D
:1023800000140240001802400148806870470000B5
:102390009800002070B5040025D094F83D00002579
:1023A00020B984F83C50204600F0BAF9242084F883
:1023B0003D002068016821F001010160206801688A
:1023C00041F4004101602068016821F4004101608E
:1023D00000F056FB4D4A6168914201D84C4900E03B
:1023E0004C49884201D2012070BD4B492368B0FBA3
:1023F000F1F15E6826F03F060E435E60636893422B
:1024000006D94FF4967359434FF47A73B1FBF3F145
:102410002368491C1E6A26F03F0631431962616831
:10242000914210D84900401EB0FBF1F2521CC2F399
:102430000B02042A01D2042022E0B0FBF1F0401C80
:10244000C0F30B001CE0A268F2B301EBC10303EB85
:102450000116431EB3FBF6F35B1C43F480431B05DC
:1024600049D092B301EBC10202EB0111401EB0FB57
:10247000F1F0401CC0F30B0040F4804040F40040F9
:102480002168CA694CF6FF739A431043C861D4E9C6
:10249000071001432068026822F0C0021143016066
:1024A000D4E9030101432068826848F2FF339A436C
:1024B00011438160D4E9050108432168CA6822F00C
:1024C000FF021043C86001E00EE016E020680168DA
:1024D00041F0010101602564202084F83D0025635E
:1024E00084F83E50002070BD01EB4106431EB3FB53
:1024F000F6F35B1CB3E70120C2E701EB4101401E8C
:10250000B0FBF1F0401CC0F30B00B7E7A086010060
:1025100080841E0000093D0040420F002DE9FF4F5E
:1025200083B09A46DDE9118793460446DDF8409072
:10253000FFF72AFF054694F83D00202870D11923A3
:10254000012274492046009501F04CFD0028F5D188
:1025500094F83C00012863D0012084F83C002068F6
:102560000168C90703D1016841F0010101602068D9
:10257000016821F400610160222084F83D004020C0
:1025800084F83E0000262664C4F82490A4F82A802B
:10259000608D20856048E062CDE9007553465A465B
:1025A0002046049901F0A0FC002879D1208DD0B1FB
:1025B000012821D00228206824D041698069009038
:1025C000208D032866D801282BD0544902283B4689
:1025D0004FF00002009557D08846204601F002FDDA
:1025E00000285DD13AE02068416981690091016865
:1025F00041F4007101607DE02068016821F4806190
:102600000160F0E7016821F48061016020680168E1
:1026100041F400610160206841698069009069E0CF
:1026200075E02A463946204601F082FD88BB54E019
:102630002068016841F40071016020680069616AE6
:102640000870606A401C6062218D491E2185618D81
:10265000491E618521680969017042E020680168AE
:1026600021F48061016020680069616A0870606A15
:10267000401C6062208D401E2085608D401E60855C
:102680003B46002241460095204601F0ABFC00B9D4
:10269000CEE705E02A463946204601F049FD18B14B
:1026A000012007B0BDE8F08F20680069616A0870FA
:1026B000606A401C6062208D401E81B22185608D61
:1026C000401E608520684269D243520712D4032914
:1026D00003D1016821F48061016020680069616AAA
:1026E0000870606A401C6062208D401E2085608DED
:1026F000401E6085208D00287FF462AF202084F882
:102700003D0084F83E6084F83C600020C9E7022068
:10271000C7E70000020010000000FFFF04000100F6
:1027200010B586B0044614216846FDF7B8FF144979
:102730002068884221D113480021026842F0020239
:102740000260006800F0020005904FF440700090B5
:102750001220CDE901010320039004200490694672
:102760000948FFF723FD07481030016841F40011C4
:102770000160006800F40010059006B010BD000074
:102780000054004030380240000402400248816892
:102790000278114481607047980000200B4810B502
:1027A000016841F400710160016841F480610160D9
:1027B000016841F480710160032000F095F80F205A
:1027C00000F006F800F04AF8002010BD003C02407E
:1027D00030B505461C4887B00024016841F001016E
:1027E0000160006806A900F00100009001A800F057
:1027F00027F900F055F91549154AB0FBF1F11548D4
:10280000491E026040F2E732C0E90324C0E9011426
:10281000846100F0B5FB040012D10E4800F008FC02
:1028200004000DD1192000F031F8102D07D200223C
:102830002946192000F038F80748056000E0012417
:1028400007B0204630BD00004438024040420F002F
:1028500000000140580C00209C0000200A4808B5E8
:10286000016841F480410160006800F480400090FC
:102870000548001F016841F080510160006800F0C8
:102880008050009008BD000044380240002809DB59
:1028900000F01F02012191404009800000F1E0207A
:1028A000C0F8001170470000F0B40E4B1B680C46D6
:1028B000C3F30223C3F10705042D00D90425191D14
:1028C000072901D2002300E0DB1E012606FA05F1EC
:1028D000491E214099409E40761E16403143F0BC6F
:1028E00002F084BC0CED00E0064900F00702086825
:1028F0004FF6FF03184040EA0220034A10430860E5
:10290000704700000CED00E00000FA052DE9F047EB
:102910000E46050065D0DFF81481D8F80000F7B244
:1029200000F00F00B04207D288F80070D8F800001D
:1029300000F00F00B04254D128683D4C810712D5F9
:10294000400703D5206840F4E05020602878000755
:1029500003D5206840F4604020602068A96820F01A
:10296000F000084320602878C0072DD030496868FF
:102970000839012812D0022813D0032811D0096881
:10298000890700292DDA216821F003010143216024
:10299000FFF7FAFC814641F2883A0EE009688903A4
:1029A000EFE709688901ECE7FFF7EEFCA0EB09010E
:1029B000514502D90320BDE8F0872068696800F01E
:1029C0000C00B0EB810FEFD1D8F80010404601F0B9
:1029D0000F01B14207D90770006800F00F00B04244
:1029E00001D00120E7E72878400705D52068E9688D
:1029F00020F4E050084320602878000706D52068BE
:102A0000296920F4604040EAC100206000F058F8D5
:102A10002168084AC1F30311515CC84006490860A7
:102A200006480068FFF7D4FE0020C4E7003C0240DF
:102A300008380240D6640008A40000209C00002052
:102A40000F2202600C4A136803F00303436013680B
:102A500003F0F0038360136803F4E053C36012686B
:102A60004FF4E05303EAD20202610448006800F028
:102A70000F0008607047000008380240003C024028
:102A80000448054900680968044AC1F38221515C81
:102A9000C8407047A400002008380240E6640008DF
:102AA0000448054900680968044AC1F34231515C91
:102AB000C8407047A400002008380240E6640008BF
:102AC000224810B5006810F00C02214815D04110C2
:102AD000042A11D01D4C241F082A0FD00C2A0CD117
:102AE0002268236802F03F025B0221D52068C0F310
:102AF0008810A0FB010120E0084610BD2268236871
:102B000002F03F025B0205D52068C0F38810A0FBED
:102B1000010104E02168C1F38811A1FB0001002339
:102B2000FDF7D0FB2168C1F30141491C49000AE0CF
:102B30002168C1F38811A1FB00010023FDF7C2FB4E
:102B40002168C1F30271B0FBF1F010BD08380240FA
:102B50000024F4002DE9F84F04007DD0DFF878B3AD
:102B60002078ABF10407C007A7F1040550D0DBF8CB
:102B700000105846C1F3810101290FD00168C1F34B
:102B80008101022902D13968490207D40068C0F3E3
:102B90008100032809D13868400206D528688003DF
:102BA00036D560680028D8D032E06068B0F5803F44
:102BB00010D0B0F5A02F286810D020F48030286005
:102BC000286820F4802028606068A0B1FFF7DCFB53
:102BD00006460CE0286840F48030F4E740F480209A
:102BE0002860F7E7FFF7D0FB801B642876D82868B9
:102BF0008003F7D50CE0FFF7C7FB064605E000BFF2
:102C0000FFF7C2FB801B6428F0D828688003F7D444
:102C10002078DFF8C89280074FF0000A44D5DBF82F
:102C20000010584611F00C0F0FD00168C1F381015C
:102C3000022902D13968490207D50068C0F3810032
:102C400003280AD13868400207D42868800715D5C0
:102C5000E068012800D111E03AE1E068B0B101205C
:102C6000C9F80000FFF790FB064604E0FFF78CFB75
:102C7000801B0228BAD828688007F7D52868216900
:102C800020F0F80040EAC10028600DE0C9F800A07B
:102C9000FFF77AFB064604E0FFF776FB801B02286D
:102CA0001CD828688007F7D42078000727D5DFF8DC
:102CB00028828B48616908F16C0881B101210160AB
:102CC000FFF762FB064604E0FFF75EFB801B02286D
:102CD00004D8D8F800008007F6D510E089E0C0F8E5
:102CE00000A0FFF751FB064605E000BFFFF74CFBD5
:102CF000801B02287DD8D8F800008007F6D4207801
:102D0000400769D574484FF0000838300068C000AB
:102D10000BD471483830016841F08051016000687F
:102D20004FF0010800F0805000906E4E3068C005F2
:102D300011D4306840F480703060FFF725FB0090BC
:102D400006E000BFFFF720FB0099401A022850D888
:102D50003068C005F6D5604EA068683601280FD0EF
:102D60000528306810D020F001003060306820F075
:102D700004003060A068B8B1FFF706FB00900FE0D8
:102D8000306840F00100F4E740F004003060F7E7FD
:102D9000FFF7FAFA0099411A41F28830814264D86B
:102DA00030688007F4D50EE0FFF7EEFA009007E0F8
:102DB000FFF7EAFA0099411A41F28830814254D86B
:102DC00030688007F4D4B8F1000F05D0424838309D
:102DD000016821F080510160A069A8B3DBF8001000
:102DE000C1F38101022947D00228C9F860A005D0AB
:102DF00000E03AE0FFF7C8FA044639E0FFF7C4FA0A
:102E0000064604E0FFF7C0FA801B02282DD8286888
:102E10008001F7D4F4E907010843E168324A490820
:102E200002EB0141A26841EA82110843217C40EA99
:102E30000160217D40EA017038600120C9F860001E
:102E4000FFF7A2FA044606E044E000BFFFF79CFA51
:102E5000001B022809D828688001F7D53AE000BF96
:102E6000FFF792FA001B022802D90320BDE8F88F71
:102E700028688001F4D42DE00128F7D03868E26991
:102E800000F48001914223D1226A00F03F01914277
:102E90001ED147F6C071626A0140B1EB821F17D1A3
:102EA000A26A4FF0FF3300F4403103EB5202B1EB62
:102EB000024F0DD194F82C2000F07061B1EB026F3D
:102EC00006D194F8301000F0E040B0EB017F01D063
:102ED0000120CBE70020C9E7083802400000474244
:102EE000800E4742007000400000FFFF70477047AF
:102EF00070B590F83C20012A32D0012480F83C4083
:102F0000022280F83D2003685A689D6822F070060E
:102F10000A6832435A60134B02689A4214D0B2F1E5
:102F2000804F11D0104B9A420ED0104B9A420BD0CA
:102F30000F4B9A4208D00F4B9A4205D00E4B9A4243
:102F400002D00E4B9A4204D1496825F08003194300
:102F5000916080F83D40002180F83C10084670BD2B
:102F6000022070BD00000140000400400008004045
:102F7000000C0040000401400040014000180040E7
:102F800010B5040003D094F83D0010B107E0012013
:102F900010BD002084F83C00204600F01FF80220FD
:102FA00084F83D00211D206801F016FD012084F801
:102FB000460084F83E0084F83F0084F8400084F81E
:102FC000410084F8420084F8430084F8440084F807
:102FD000450084F83D00002010BD000008B5114AEE
:102FE00001681148914208D1016841F00201016075
:102FF000006800F00200009008BD0C4A9142FBD12D
:10300000016841F0100101600068002200F010002A
:10301000009001213620FFF747FCBDE8084036202C
:10302000FFF734BC0004004040380240001000406C
:1030300090F83D10012901D001207047022180F84D
:103040003D100168CA6842F00102CA600068114977
:10305000884214D0B0F1804F11D00F4988420ED071
:103060000E4988420BD00E49884208D00D4988424B
:1030700005D00D49884202D00C49884204D18168AC
:1030800001F00701062903D0016841F00101016048
:10309000002070470000014000040040000800408C
:1030A000000C0040000401400040014000180040B6
:1030B00070B5044690F83C000025012817D0012681
:1030C00084F83C60022084F83D002068826822F089
:1030D000770222F47F4282600868502838D00DDCE5
:1030E00020284FD005DC90B3102811D14AE00220EF
:1030F00070BD302846D040280AD13BE060282FD050
:1031000070280DD0B0F5805F03D0B0F5005F12D00D
:10311000012584F83D60002084F83C00284670BDFD
:10312000CB68D1E90121206801F0CBFC20688168DF
:1031300041F0770109E0CB68D1E90121206801F075
:10314000C0FC2068816841F480418160E1E719E0BA
:10315000CA684968206801F089FD5021206806E0AE
:10316000CA684968206801F092FD6021206801F07A
:10317000B2FCCEE7CA684968206801F077FD4021BB
:103180002068F4E7226801461046F0E72DE9F04197
:103190000D46040003D094F83D0018B108E001206A
:1031A000BDE8F081002084F83C00204600F040F8A3
:1031B000022084F83D002068816844F207029143B0
:1031C0008160211D206801F007FC226890689169E8
:1031D000166A2B68AF69034340F20330814341EA2A
:1031E0000721A868EF6908434FF6FC418843E96866
:1031F00040EA0720014328692F6A000140EA0730AE
:10320000084369686D6926F0AA0646EA0515294350
:1032100093602268906154F8460B0162012004F823
:103220001F09E0752076E0762077A0750020B7E7CB
:1032300030B587B0044614216846FDF730FA2148BE
:10324000246800221F4910380223B4F1804F1FD098
:103250001D4DAC421AD10C6844F004040C6009689E
:1032600001F004010591016841F00201016000686C
:10327000694600F002000590C0200090CDE90132BF
:103280001248CDE9032300BFFEF790FF07B030BD21
:103290000C6844F001040C60096801F0010105911B
:1032A000016841F0010101600068694600F0010019
:1032B000059003200090CDE901320120CDE90320E3
:1032C0000348E1E7403802400008004000040240A3
:1032D0000000024070B590F83E60044690F83F5000
:1032E00090F8423090F84320022021B104290ED0FA
:1032F000012E1BD114E0012E18D1012B16D184F818
:103300003E0084F8420001220021206820E0012DC7
:103310000CD1012A0AD184F83F0084F8430014E05C
:10332000012D03D1012B01D1012A01D0012070BD53
:1033300084F83E0084F83F0084F8420084F843009B
:1033400001220021206801F0AFFB01220421206846
:1033500001F0AAFB2068016841F001010160002032
:1033600070BD70472DE9F04104460068C6680569E4
:103370004FF00007A90713D5B10711D5F91E016158
:1033800001202077206880698007204602D0FFF75F
:10339000E8FF04E000F0BAF8204600F04CF9277787
:1033A000680716D5700714D521686FF0040008610E
:1033B000022020772068806910F4407F204602D0E8
:1033C000FFF7CFFF04E000F0A1F8204600F033F94A
:1033D0002777280715D5300713D521686FF0080027
:1033E0000861042020772068C0698007204602D049
:1033F000FFF7B7FF04E000F089F8204600F01BF962
:103400002777E80616D5F00614D521686FF010006E
:103410000861082020772068C06910F4407F2046AA
:1034200002D0FFF79EFF04E000F070F8204600F0A5
:1034300002F92777E80708D0F00706D021686FF077
:1034400001000861204600F05BF9280608D5300627
:1034500006D521686FF0800008612046FFF746FD21
:10346000680608D5700606D521686FF0400008612F
:10347000204600F0C7F9A8060AD5B00608D521688D
:103480006FF0200008612046BDE8F041FFF72FBD36
:10349000BDE8F08130B587B0044614216846FDF7D9
:1034A000FEF816492068884226D115480024016894
:1034B00041F001010160016801F00101059101681D
:1034C00041F0020101600068022500F00200059051
:1034D000C0200090CDE9015469460A48CDE9034572
:1034E000FEF764FE03200090CDE9015469460648CA
:1034F000CDE90345FEF75AFE07B030BD0004004099
:10350000303802400000024000040240704770B5AD
:10351000044690F83C0000260D4601280FD00120FB
:1035200084F83C006AB1042A1DD0082A2FD00C2A46
:103530003FD00126002084F83C00304670BD0220B8
:1035400070BD206801F0D0FA2068816941F008015F
:1035500081612068816921F00401816120688169AD
:103560002A69114311E0206801F0EEFA20688169B0
:1035700041F4006181612068816921F48061816189
:10358000206881692A6941EA02218161D2E72068C5
:1035900001F010FB2068C16941F00801C161206899
:1035A000C16921F00401C1612068C1692A69114320
:1035B00011E0206801F032FB2068C16941F400612C
:1035C000C1612068C16921F48061C1612068C1695D
:1035D0002A6941EA0221C161ACE710B5040003D0B9
:1035E00094F83D0010B107E0012010BD002084F8E0
:1035F0003C00204600F01EF8022084F83D00211D0A
:10360000206801F0E9F9012084F8460084F83E00C2
:1036100084F83F0084F8400084F8410084F84200B8
:1036200084F8430084F8440084F8450084F83D00A1
:10363000002010BD7047704710B50446022249B102
:1036400004290ED0082913D094F84100012816D07F
:10365000012010BD94F83E000128F9D184F83E20E5
:103660000FE094F83F000128F2D184F83F2008E0F1
:1036700094F840000128EBD184F8402001E084F860
:1036800041200122206801F00FFA16492068164AED
:10369000884201D0904203D1436C43F40043436419
:1036A0002068884213D0B0F1804F10D00F49884273
:1036B0000DD00F4988420AD00E49884207D0904267
:1036C00005D00D49884202D00C49884204D1816856
:1036D00001F00701062903D0016841F001010160F2
:1036E000002010BD00000140000401400004004023
:1036F00000080040000C004000400140001800405D
:1037000010B5044600683549884201D1FFF73EF8FC
:103710003348844261D1334C04F11403606B1A1FA7
:10372000401C6063111F304800F056FE04F1200376
:103730001A1F111F2C4800F095FE206A02F04AFE65
:103740009FED2A1B53EC112B02F032FA02F0FEF926
:103750002062B0F17C5F06DCB0F13F4F03D89FEDF3
:10376000250A84ED080A04F10C00D4ED023A90EC2D
:10377000070AFEF769F820489FED200AD0ED000AFD
:1037800060EE800AFDEEE00AC4ED0A0AD0ED010AFF
:1037900060EE800AFDEEE00AC4ED0B0AD0ED020AED
:1037A00020EE800ABDEEC00A84ED0C0A606B0A2888
:1037B00013D194ED080A124801F0D7FEBDEEC00AFD
:1037C00042F2D00110EE100AA063884202DA4942A8
:1037D000884200DCA1630020606310BD000001404E
:1037E000C00A00205C0000209409002052B81E8509
:1037F000EB51E83F000000000C0900200000C84227
:10380000E8080020704738B5044690F842002028A8
:1038100001D0022038BD51B14AB1012020630020FF
:103820006063204601F006FC216B012901D00120D4
:1038300038BD21680A684968009121680C3151E857
:10384000002F42F0100241E80023002BF5D138BDD3
:103850000A4A10B590420FD10A460949074800F0BC
:10386000CDFA322206490548FFF7CDFF054800682A
:10387000016821F00801016010BD0000080B002064
:1038800018090020980B0020704710F8411F40785D
:1038900008437047F8B5016804460868CA684B6970
:1038A00010F00F0F4FF0000559D003F0010602F49D
:1038B0009077374365D0C10705D0D10503D5616C3A
:1038C00041F001016164410705D5D90703D0616C5E
:1038D00041F002016164810705D5D90703D0616C0D
:1038E00041F004016164010707D502F02001314372
:1038F00003D0616C41F008016164616C00293AD029
:10390000800604D5900602D5204601F0ABFA206867
:103910004069616CC0F38010090700D460B3204691
:1039200001F06BFA20684069400621D52068143008
:1039300050E8001F21F0400140E80012002AF5D1B4
:10394000E06BA8B172490165E06BFEF798FA0028B8
:1039500011D0E06B016D01B0BDE8F040084783066F
:103960000FD593060DD52046BDE8F84001F07ABA90
:103970002046FFF789FFF8BD2046FFF785FF656405
:10398000F8BD266B2023012E7ED1C6067CD5D60637
:103990007AD508684868009048694FF002064006EA
:1039A0004DD5E26B106840684FF480770004000C3E
:1039B0003AD0A18D814237D9E085D069B8422DD067
:1039C00020680C3050E8001F21F4807140E800129C
:1039D000002AF5D12068143050E8001F21F00101C1
:1039E00040E80012002AF5D12068143050E8001F8A
:1039F00021F0400140E80012002AF5D184F842305D
:103A0000256320680C3050E8001F21F0100140E8C9
:103A10000012002AF5D1E06BFEF7E8F96663A08D8D
:103A2000E18D401A81B206E0A18D8142A8D1D06912
:103A3000B842A5D166632046FFF70AFFF8BDA08D06
:103A4000E18D401A81B2E08D0028F7D00029F5D031
:103A500020680C3050E8002F22F4907240E80027D4
:103A6000002FF5D12068143050E8002F22F0010219
:103A700040E80027002FF5D184F842302563206804
:103A80000C3050E8002F00E006E022F0100240E881
:103A90000023002BF3D1CDE705062BD5150629D53C
:103AA00094F841002128C9D1A068B0F5805F01D108
:103AB0002069B0B1206A411C216221680078486009
:103AC000E08C401E0004000CE084B7D12068C1687F
:103AD00021F08001C1602068C16841F04001C160EF
:103AE000F8BD206A0088C0F308004860206A801C86
:103AF0002062E5E74006F3D55006F1D5CA682046B6
:103B000022F04002CA6084F8413000F0D2F9F8BDDA
:103B1000B34C000870B5040004D094F841000025AF
:103B200010B106E0012070BD84F84050204600F03E
:103B300023F8242084F841002068C16821F4005152
:103B4000C160204601F0F0F92068016921F490413C
:103B500001612068416921F02A0141612068C16842
:103B600041F40051C1606564202084F8410084F86C
:103B700042006563002070BD2DE9F04186B0064625
:103B800014216846FCF78BFD404F31684048022203
:103B90000325404B0024B9424FD13D4910310F68F5
:103BA00047F480270F60096801F4802105910168BE
:103BB00041F0040101600068694600F004000590CE
:103BC000A8028DE83500072004901846FEF7EEFAAB
:103BD000324D31484FF000682860C5E9018407156F
:103BE000C5E903476C61AC61EC612C6228466C62EC
:103BF000FEF728FA08B1FDF76DFFF563AE63274DB8
:103C0000254860353030E5E80208402091C523485A
:103C100045F814496030AC61EC612C626C62FEF7CF
:103C200011FA08B1FDF756FFB563002211462720AF
:103C3000AE63FEF739FE272023E0194EB14222D1B0
:103C4000134914310E6846F020060E60096801F031
:103C500020010591016841F0040101600068694696
:103C600000F004000590C0208DE835000820049085
:103C70001846FEF79BFA002211464720FEF714FE75
:103C80004720FEF703FE06B0BDE8F0810048004083
:103C9000303802400008024028600240980B0020A3
:103CA0000014014090F84230202B01D002207047D0
:103CB00021B11AB10023036301F00CBA012070474F
:103CC00070B50068204988423DD120480025204C2D
:103CD00001784278032918D231B101290BD06254FE
:103CE00003210170827026E00A21B1EB121F22D15C
:103CF0002270012105E00521B1EB121F03D1627092
:103D00000221017017E0057015E0104EB378767847
:103D100062547340532903D2491C017083700AE036
:103D2000837005706178207861F31F10C0B2834200
:103D300001D100F0A5FABDE8704004490122491CF8
:103D40000448FFF7AFBF70BD001401400800002019
:103D500090040020500B002070472DE9F8430446E2
:103D600090F84100984616460D46202802D00220C1
:103D7000BDE8F88385B17EB100206064212084F81D
:103D80004100FEF701FBA6848146E684A068202757
:103D9000B0F5805F02D003E00120E9E7206910B1AF
:103DA0002E4600250EE000260CE08021204601F082
:103DB000ACF9A8B9C6B116F8010B21684860E08CCF
:103DC000401EE084E08C4B464FF00002CDF80080AE
:103DD0000028EAD14FF04001204601F096F940B1A9
:103DE00084F841700320C3E735F8020BC0F30800E4
:103DF000E3E784F841700020BAE7000070B504469C
:103E000090F84100202801D0022070BD01B3FAB122
:103E10002162A284E28400206064212384F841307E
:103E2000A56B144BEB63A56B134B2B64A56B134B6A
:103E3000EB64A36B186520681346A56B021D28462A
:103E4000FEF76AF930B110206064202084F8410048
:103E5000012070BD21686FF04000086020681430B8
:103E600050E8001F41F0800140E80012002AF5D11F
:103E7000002070BDAF4D0008F14D0008C14C000896
:103E800090F84130202B01D00220704779B172B1F7
:103E900001628284C28400214164212180F84110A2
:103EA0000068C16841F08001C160002070470120B6
:103EB000704770477047FEE701684A69D243520570
:103EC0000FD46FF480624A61002140F8301F202235
:103ED00042738173026942F004020261017301209E
:103EE00070470020704700002DE9F84F0446006835
:103EF00089460B9D01689846174641F48061016030
:103F00002068016841F48071016000954FF0011B49
:103F10000022594620460A9B00F064F84FF4007ACC
:103F200040B120680068C00501D5C4F840A0032056
:103F3000BDE8F88F216809F0FE0008612B4628498A
:103F400020460A9A00F096F8F0BB20684169806923
:103F500000902A4620460A9900F022F940B1206CD0
:103F600004283AD12068016841F40071016034E00E
:103F7000FEB2B8F1010F09D02168380A08612A465B
:103F800020460A9900F00CF90028E8D12068066163
:103F90002A4620460A9900F003F90028DFD120685C
:103FA000016841F480710160009500225946204665
:103FB0000A9B00F017F80028B3D1216809F0FF0030
:103FC00040F00100086100E007E02B46044920466C
:103FD0000A9A00F04FF80028AAD00120A8E70000B4
:103FE000020001002DE9F047984617460D460446A9
:103FF000C1F30746DDF820902AE000BFB8F1FF3F8B
:1040000026D0FEF7C1F9A0EB0901414502D8B8F16D
:10401000000F1DD12068012E16D0806925EA00000E
:104020000004000C12D00020B84211D1002044F846
:10403000300F20216173A073216941F020012161BB
:1040400020730120BDE8F0874069E7E70120EBE736
:104050002068012E0AD0806925EA00000004000CC7
:1040600006D00020B842C9D00020EBE74069F3E752
:104070000120F7E72DE9F047984616460D4604461D
:104080004FF000094FF0200AC1F3074723E02068F2
:104090004069C043400515D42068016841F40071AF
:1040A000016021686FF480604861C4F8309084F842
:1040B0003DA084F83E90216C41F00401216484F815
:1040C0003C9021E0701C06D0FEF75EF9A0EB0800E2
:1040D000B04203D816B1012F1FD021E02068012F74
:1040E00015D0806925EA00000004000C18D000BF3C
:1040F00044F8309F84F80DA084F80E90216941F0B7
:104100002001216184F80C900120BDE8F08740690E
:1041100025EA00000004000CEAD12068406901E0B3
:104120002068806925EA00000004000CAFD1ECE7AC
:104130002DE9F041002590460E460446202728E050
:104140004069C043C0060CD454F8301B6FF0100017
:10415000486144F810596777A577206A206225776F
:1041600014E0FEF711F9A0EB0800B04200D886B9C0
:1041700020684069C04340060BD544F8305F677340
:10418000A573206940F02000206125730120BDE85F
:10419000F08120684169C9434906D1D40020F6E77F
:1041A00070B516460D4604461EE02046FFF784FE15
:1041B00008B1012070BD681C16D0FEF7E5F8801B21
:1041C000A84200D885B920684069C04300060BD5D5
:1041D000002044F8300F20216173A073216941F061
:1041E000200121612073E4E720684069C043000694
:1041F000DBD4002070BDD0ED043AB0EE403A90ED33
:10420000030A70EEE30A90ED082AD0ED051AD0ED0E
:10421000012A01EE200AD0ED000A62EE200A41EEEA
:10422000201AD0ED060A41EE420A02EE812A90EDF4
:10423000021A31EE814A81EE841AC0EE842A33EEEE
:10424000404A01EE040A80ED030A33EE403A42EEA2
:10425000833AB0EE613A01EE613AF0EE601AC0EDD9
:10426000043A41EE601A80ED053A42EEC30AC0ED11
:10427000061A02EEE12AC0ED070A80ED082A70470F
:104280002DE9F0414D4CE178A07801F07F0100EB81
:10429000012001F0A4FE9FED4A1B53EC112B01F00D
:1042A000B1FE01F053FC484B00EE100A1846D3ED66
:1042B000020A8088454DF3EE042A9FED451ADFED92
:1042C000451AB4EEE00AA4F57A71F1EE10FA2BDD8E
:1042D00070EE600A5FF0000280EEA22A02EE902AE1
:1042E000F0EE400AF8EE622A42EE220A10EE906AE0
:1042F000AE4201DD70EEC10A871860EEA10AFCEE45
:10430000E00A10EE906A21F8276004EB8206377904
:10431000767907EB0626871801EB8707521CD2B285
:104320007E80142ADAD32CE030EE012A5FF00002FE
:1043300072EE600A80EEA22A02EE902AF0EE400AA7
:10434000F8EE622A42EE220A10EE906AAE4201DDD9
:1043500070EEC10A871860EEA10AFCEEE00A10EECA
:10436000906A21F8276004EB82063779767907EBAB
:104370000626871801EB8707521CD2B27E80142ACA
:10438000DAD3143080B283ED020A9880B0F5827FD0
:1043900012D90A4A00206E3231F8204022F820401B
:1043A00001EB800402EB8005401C6488C0B26C8085
:1043B000FA28F1D300209880BDE8F0819004002015
:1043C000000000000000903F080000200000B443FF
:1043D0000000B4430000C84270B586B01C461546C4
:1043E0000E466423062203A98DE80E0001233B221A
:1043F000D021FEF793F848B19FED180A84ED000A2A
:1044000085ED000A86ED000A06B070BDBDF80C000F
:10441000BDF8102040BA01B200EE101ABDF80E002F
:1044200052BAF8EEC00A9FED0E0A40BA00B260EE32
:10443000800A12B2C6ED000A00EE900AF8EEE00A19
:1044400060EE800AC5ED000A00EE902AF8EEE00A60
:1044500020EE800A84ED000AD6E70000000000008C
:104460000000803870B586B01C4615460E466423A1
:10447000062203A98DE80E0001234322D021FEF776
:104480004DF848B19FED180A84ED000A85ED000A49
:1044900086ED000A06B070BDBDF80C00BDF8102016
:1044A00040BA01B200EE101ABDF80E0052BAF8EE92
:1044B000C00A9FED0E0A40BA00B280EE801A00EEEC
:1044C000900A12B2F8EEE00A86ED001A80EE801A29
:1044D00000EE902AF8EEE00A85ED001A80EE801AD0
:1044E00084ED001AD6E7000000000000000003433E
:1044F0007FB5002415480094019402941249039456
:10450000016001254FF480310561C0E90114057691
:1045100080F820400E49C0E90A14C561C46080F8E3
:1045200030404561FDF78AFB08B1FDF7D3FA022060
:10453000CDE90005694602940448FDF7CDFA00284C
:1045400001D0FDF7C7FA7FBD002001404C090020D3
:104550000100000F0D4808B5016841F40011016029
:104560000068002200F40010009011460C20FEF7B5
:104570009BF90C20FEF78AF9002211460E20FEF767
:1045800093F9BDE808400E20FEF780B930380240AC
:10459000114808B5016841F004010160016801F0AB
:1045A00004010091016841F080010160016801F09F
:1045B00080010091016841F001010160016801F092
:1045C00001010091016841F002010160006800F002
:1045D0000200009008BD0000303802400D4810B5C0
:1045E0000B4901600C49416000214FF48042816019
:1045F000C0E9031241618161C1610162FDF7CAFE38
:10460000002803D0BDE81040FDF764BA10BD0000DB
:104610000054004094090020801A060010B58CB0A8
:1046200024216846FCF73BF80024144809944FF015
:1046300080410A94C0E90014611EC0E9024104618E
:1046400084610120CDE90004CDE902040494CDE9A0
:1046500005400794694609480894FEF797FD08B19C
:10466000FDF738FA099409A904480A94FEF740FCBA
:10467000002801D0FDF72EFA0CB010BDE80900208B
:1046800010B58EB000240794089409940A940B94F2
:104690001C2168460C94FCF702F82B48294901605C
:1046A0004721C0E9011440F2E731C0E903148461F5
:1046B000FEF766FC08B1FDF70DFA4FF48050079045
:1046C00007A92148FEF7F4FC08B1FDF703FA1E48DC
:1046D000FEF783FF08B1FDF7FDF90B940BA91A480B
:1046E0000C94FEF705FC08B1FDF7F4F9602000908A
:1046F0004FF4FA70CDE9010400226946124804948F
:10470000FEF705FF08B1FDF7E5F9042269460E48FA
:10471000FEF7FDFE08B1FDF7DDF9082269460A48FB
:10472000FEF7F5FE08B1FDF7D5F90C2269460648FB
:10473000FEF7EDFE08B1FDF7CDF90348FEF7AAFE3E
:104740000EB010BD00040040300A002010B58CB03F
:1047500024216846FBF7A3FF002415480994134958
:104760000A94C0E900144FF6FF71C0E902410461E8
:1047700084610120CDE90004CDE902040494CDE96F
:104780000540079469460A480894FEF7FFFC08B103
:10479000FDF7A0F9099409A905480A94FEF7A8FBBA
:1047A000002801D0FDF796F90CB010BD00080040BC
:1047B000780A00201CB500240F4800940D4901948C
:1047C00001605921C0E9011440F2E731C160802144
:1047D0008161FEF7D5FB08B1FDF77CF92020CDE91A
:1047E000000469460448FEF783FB002801D0FDF76A
:1047F00071F91CBD00100040C00A00200C4810B523
:104800000A4901604FF416514160002181600C2279
:10481000C160C0E904128161C161FFF77BF9002822
:1048200003D0BDE81040FDF755B910BD0048004069
:10483000080B00200C4810B50A4901604FF4E12133
:104840004160002181600C22C160C0E904128161D5
:10485000C161FFF75FF9002803D0BDE81040FDF704
:1048600039B910BD00140140500B0020FEE7FEE7EF
:1048700030EE600AD0ED030A90ED001AB0EE002A87
:1048800070EE601A21EE211AD0ED011A01EE801AA5
:10489000F0EE401A40EEC21A90ED042A71EE821A30
:1048A00090ED022A02EE211AD0ED051A71EE811A5E
:1048B000C0ED051A90ED061AF4EEC11AF1EE10FAE9
:1048C00001DD80ED051AD0ED051A90ED071AF4EE22
:1048D000C11AF1EE10FA01D280ED051AC0ED040AFA
:1048E00080ED030A90ED050A7047000080EC030A92
:1048F0009FED060A80ED030A80ED040A80ED050AAB
:10490000C0ED061A80ED072A704700000000000085
:10491000704770477047000030B593B03421684647
:10492000FBF7BDFE14210DA8FBF7B9FE1E480025BC
:10493000016841F080510160006800F080501290E1
:104940001A48016821F4404141F480410160006847
:10495000022400F4404012900120039010200094A3
:1049600006940490CDE907504FF4A87009900420F4
:10497000CDE90A0468460C94FEF7ECF808B172B66B
:10498000FEE70DA90F2081E831004FF48050CDE9FA
:10499000100502210DA8FDF7B9FF002801D072B65D
:1049A000FEE713B030BD0000403802400070004008
:1049B0000248016841F470010160704788ED00E031
:1049C0000148FEF7CFBC0000580C00200148FEF75C
:1049D000C9BC0000C00A0020F0B50268274B284D72
:1049E000284E294F294C4FF0804C984209D0604501
:1049F00007D0A84205D0B04203D0B84201D0A042AF
:104A000004D122F0700E4A6842EA0E0298421BD08E
:104A1000604519D0A84217D0B04215D0B84213D083
:104A2000A04211D01A4DA8420ED01A4DA8420BD068
:104A3000194DA84208D0194DA84205D0184DA842DA
:104A400002D0184DA84203D122F44075CA682A4307
:104A50004D6922F080022A438D68C5620D68856227
:104A6000984201D0A04201D109690163016841F077
:104A700004010160012141610260F0BD00000140BC
:104A80000004004000080040000C00400004014009
:104A9000004001400044014000480140001800402F
:104AA000001C00400020004010B501F01F03012150
:104AB000046A99408C430462016A9A40114301627E
:104AC00010BD10B5846842EA032224F47F440A43EF
:104AD0002243826010BD826822F070020A4342F0D5
:104AE0000701816070470000F0B5036A026A22F096
:104AF0000102026242688469124E24F073050C6858
:104B00002C4323F002058B682B430D4DA84201D0A6
:104B1000B04205D123F00807CB683B4323F00403E0
:104B2000A84201D0B04205D14D6922F4407215432C
:104B30008A692A4342608461496841630362F0BD27
:104B40000000014000040140F0B5026A036A23F04E
:104B500010030362436884690D6824F4E64444EA60
:104B600005248D6822F0200242EA05120F4D104EF6
:104B7000A84201D0B04206D1CF6822F0800242EABA
:104B8000071222F04002A84201D0B04207D14D697D
:104B900023F4406343EA85038D6943EA8503436058
:104BA0008461496881630262F0BD00000000014039
:104BB00000040140F0B5026A036A23F480730362C3
:104BC0004368C46922F4007224F073050C68124E25
:104BD0002C438D6842EA05220E4DA84201D0B04216
:104BE00006D1CF6822F4006242EA072222F48062F2
:104BF000A84201D0B04207D14D6923F4405343EAA3
:104C000005138D6943EA05134360C4614968C163B4
:104C10000262F0BD000001400004014030B5046AAA
:104C2000026A22F4805202624268C3690D6823F46A
:104C3000E64343EA05238D6824F4005444EA05342E
:104C4000084DA84202D0084DA84204D14D6922F473
:104C5000804242EA85124260C3614968016404628D
:104C600030BD0000000001400004014010B5036A9F
:104C7000046A24F001040462846924F0F00444EA24
:104C8000021423F00A020A438461026210BD10B5C7
:104C9000036A046A24F010040462846923F0A00308
:104CA00024F4704444EA023243EA01118261016251
:104CB00010BD10B5806B0021C185FEF7E5FD10BD6C
:104CC00070B5846B2068406994F84110C0F3C0103F
:104CD0000025212904D118B1E584204600F0B4F85C
:104CE0002068406994F84210C0F38010222904D152
:104CF00018B1E585204600F080F8606C40F01000A7
:104D000060642046FEF7C0FD70BD10B50146806BA3
:104D1000096809684FF00002C9052ED4C2850168F0
:104D20000C3151E8003F23F4807341E80034002C3B
:104D3000F5D10168143151E8003F23F0010341E847
:104D40000034002CF5D10168143151E8003F23F004
:104D5000400341E80034002CF5D1202180F84210B6
:104D6000016B012909D101680C3151E8003F23F0A2
:104D7000100341E80034002CF5D14263016B012996
:104D800002D0FEF79DFF10BD818DFEF761FD10BDC5
:104D900010B5806B01214163016B012902D0FEF740
:104DA000DBFF10BD818D4908FEF752FD10BD10B527
:104DB0000146806B09680968C90516D40021C184C1
:104DC0000168143151E8002F22F0800241E80023ED
:104DD000002BF5D101680C3151E8002F42F0400260
:104DE00041E80023002BF5D110BDFFF762F810BD9C
:104DF00010B5806BFFF75EF810BD01680C3151E80B
:104E0000002F22F4907241E80023002BF5D10168B5
:104E1000143151E8002F22F0010241E80023002B59
:104E2000F5D1016B012909D101680C3151E8002F3E
:104E300022F0100241E80023002BF5D1202180F858
:104E4000421000210163704701680C3151E8002FC6
:104E500022F0C00241E80023002BF5D1202180F888
:104E60004110704708B590F84210222901D0022065
:104E700008BD82684FF480539A4201D1016921B183
:104E8000816A9A421BD04AB10AE00268816A52687C
:104E9000C2F308020A80816A891C08E0026972B1C3
:104EA0000268526802F07F020A70816A491C8162BE
:104EB000C18D491E0904090CC18503D01BE002689D
:104EC0005268F1E70168CA6822F02002CA600168EE
:104ED000CA6822F48072CA6001684A6922F001023D
:104EE0004A61202180F8421000214163026B012AAF
:104EF00003D0FEF7E5FE002008BD016301680C3118
:104F000051E8002F22F0100241E80023002BF5D1D8
:104F100001680A68D20602D50A6849680091818D45
:104F2000FEF796FCE7E7000070B5044600680169EB
:104F3000E26821F44051114301612169A068E269EE
:104F400008436169114308432168CA6849F20C6348
:104F50009A430243CA6020684169A26921F4407102
:104F60001143416131492068884202D0304988426A
:104F700002D1FDF795FD01E0FDF782FDE269002316
:104F8000192164253226B2F5004F626828D0A0FBB3
:104F90000101930F9200FBF795F90146B0FBF5F084
:104FA0006FF01802504301EB800006EB0010B0FBDD
:104FB000F5F000F0F002B1FBF5F002EB0012B1FBEE
:104FC000F5F06FF01803584301EB800006EB00107A
:104FD000B0FBF5F000F00F0021681044886070BD50
:104FE000A0FB010192185B41FBF76CF90146B0FB95
:104FF000F5F00201B1FBF5F06FF01803584301EB37
:10500000800006EBC000B0FBF5F000F0F80002EB0A
:105010004002B1FBF5F0584301EB800006EBC00005
:10502000B0FBF5F000F00700D6E7000000100140EB
:105030000014014038B58162044682850020134681
:105040006064222284F84220E56B1F4AEA63E56B24
:105050001E4A2A64E56B1E4AEA64E26B10650A4642
:105060002168E06B091DFDF757F830B1102060642E
:10507000202084F84200012038BD20680168406883
:105080000090206948B120680C3050E8001F41F4BE
:10509000807140E80012002AF5D12068143050E8F1
:1050A000001F41F0010140E80012002AF5D12068FC
:1050B000143050E8001F41F0400140E80012002A7F
:1050C000F5D1002038BD00000B4D0008914D0008BF
:1050D000C14C000881628285C28500214164222181
:1050E00080F84210016921B10168CA6842F48072F7
:1050F000CA6001684A6942F001024A610068C168F9
:1051000041F02001C160002070472DE9F843984626
:1051100017460D460446089E24E0701C22D0FDF779
:1051200033F9A0EB0800B0421AD8CEB12068C168AC
:10513000490717D5802D15D0402D13D00168C943DC
:1051400009070FD401680025406800902046FFF74A
:1051500054FE0820606484F840500120BDE8F883C4
:105160000320FBE72068006835EA000004D0002037
:10517000B842D2D00020F1E70120F9E70148FEF75C
:1051800089BB0000080B00200148FEF783BB00002C
:10519000500B0020FEE703B401984100009850EA4C
:1051A000C12018BF04204A0D18BF40F0010040F292
:1051B000FF72B2EB515F08BF40F00200012808BF48
:1051C000052002B070474100080218BF04200A0EF3
:1051D00018BF40F001004FF07F4232EA010108BFE2
:1051E00040F00200012808BF052070470907090E9A
:1051F000002804DB00F1E02080F80014704700F084
:105200000F0000F1E02080F8141D704710EE100A26
:1052100010B510EE901A4FF0684202EB40032DEDEE
:10522000028BB3F1654F3CBF02EB4102B2F1654F17
:105230007CD200BFC0F3C753C1F3C7529A1A1B2ACE
:1052400009DD10F0004F14BF9FED6E0A9FED6E0A4E
:10525000BDEC028B10BD12F11A0F1BDA11F0004FDA
:1052600009D010F0004F0CBF9FED680A9FED680A4F
:10527000BDEC028B10BD80EE208A18EE100AFFF7FD
:10528000A2FF042808BF00F009F9B0EE480ABDECFF
:10529000028B10BD4200B2EB410F37D910F0004F26
:1052A00019BFDFED5C1A9FED5C1ADFED5C1A9FED14
:1052B0005C1AB0EE602A0A46F1EE400A80F0004126
:1052C000B0EE420A10460A1A5200B2F1807F34D280
:1052D000484010F0004FDFED532A9FED533A1DBFB9
:1052E000BEEE002A71EEE21A31EE431AB6EE002A43
:1052F00004BF71EEA21A31EE031AF0EE402A42EE1C
:10530000602A40EE020A82EEA02A18E011F0004F57
:1053100004BF9FED461AF0EE411AD4D010F0004FB2
:105320001CBFDFED431A9FED431A00E026E004BFE7
:10533000DFED411A9FED411AC5E780EE202A22EEEB
:10534000020ADFED3F0ADFED3F2ABDEC028B40EEA3
:10535000202ADFED3D0A40EE220ADFED3C2A40EE36
:10536000202ADFED3B0A40EE220A22EE000A00EE80
:10537000201A31EE020A30EE210A10BD4FF07F42B2
:10538000B2EB400F28BFB2EB410F05D2BDEC028B50
:10539000BDE8104000F07FB840EA01035B0008BFA1
:1053A00041F0FF410BD0B2EB400F08BFB2EB410F11
:1053B00008D120F0804000EE100A21F0804100EE7C
:1053C000901A37E7B2EB400F12BF5FEA410240F09C
:1053D000FF4001F000413FF42DAF4A0092EA400344
:1053E0003FF528AF002AACBF9FED1A1A9FED1A1A9D
:1053F00020EE010A60EE810A10EE100A10EE901AFB
:1054000018E70000DB0FC9BFDB0FC93FDB0F4940C6
:10541000DB0F49C00000C9BF22AAFDB90000C93F87
:1054200022AAFD390060ED3EC30ACE37000000001D
:10543000000049C022AA7DBA0000494022AA7D3A54
:105440002DAD65BD8FB8D53D0FB511BE61C84C3EC1
:10545000A8AAAABE0000804F0000802F10B52DED35
:10546000028BB1EEC08A18EE100A20F00040C0F1A5
:10547000FF40C00F0AD010EE100A20F00040C0F12B
:10548000FF40C00F04BF0120FBF738F9B0EE480A17
:10549000BDEC028B10BD30EE200A70479FED020A72
:1054A00020EE000A704700000000001030380A2883
:1054B00001D2012070470020704770B54FF4C874C6
:1054C000B3EE080A204600F0CEFA40F65430FCF75E
:1054D0005BFE00F0D9FA4FF4BE752846FCF754FE87
:1054E000B3EE080A204600F0BEFA40F2DC50FCF7AA
:1054F0004BFE00F0C9FA4FF4AF70FCF745FEB3EE77
:10550000080A204600F0AFFA40F6B830FCF73CFE3F
:1055100000F0CAFA4FF4A570FCF736FEB3EE080AA5
:10552000204600F0A0FA4FF4E1663046FCF72CFE6E
:1055300000F0BAFA2846FCF727FEB3EE080A204628
:1055400000F091FA4FF41660FCF71EFE00F09CFA92
:105550002846FCF719FEB3EE080A204600F083FA4D
:105560003046BDE87040FCF70FBED0ED000A70EE8B
:10557000C00AC0ED060A90ED020A30EE201A80ED56
:10558000021A90ED030AD0ED041A20EE200A01EE73
:10559000810A90ED071AD0ED051A30EEC11A01EE1E
:1055A000810A80ED010AC0ED070A70472DED068BD8
:1055B000C0B0FDF7F3F8FFF7AFF9FEF7E9FFFEF72C
:1055C000C9FFFEF795FFFFF75BF8FFF727F8FFF736
:1055D000BDF8FFF703F8FFF711F9FFF72BF9FFF715
:1055E000E9F89B48FDF724FD32229A499A48FEF7D4
:1055F0000AF99A480068016821F0080101603C211D
:105600009748FDF767FE3C219648FDF763FE0021B1
:105610009548FEF711F804219348FEF70DF808218C
:105620009148FEF709F80C218F48FEF705F88F48DE
:10563000FCF75EFBFCF7CCF84FF4C8702E909FEDA2
:105640008C8AB0EE482ADFED8B8AB0EE481AF0EE75
:10565000681A9FED899AF0EE490A9FED880A2D900D
:105660002FA8FFF743F9B0EE482AF0EE681AB0EE23
:10567000481AF0EE490AB6EE080A37A8FFF736F9DD
:10568000DFF8D0A1DFF8F8B154469AF800000228FC
:1056900008D0082856D004285BD006285CD00528FE
:1056A0005DD05EE0B3EE080A4FF4C87000F0DBF99D
:1056B0006B480068416A734D28682960081A00F039
:1056C00077FC9FED719B53EC192B00F019FB9FEDBC
:1056D00070AB53EC1A2B00F013FB41EC180B614834
:1056E0000068416A68686960081A00F061FC53EC60
:1056F000192B00F005FB53EC1A2B00F001FB9FED7A
:10570000669B53EC192B00F07DFC0E46054653ECCE
:10571000192B51EC180B00F075FC02AA82E863000B
:105720002D9800905EA2802106A82E9BFAF756FEC7
:1057300006A8FAF795FF82B2642306A94648FEF749
:105740000CFB0EE0B3EE080A4FF4C87000F078F9D5
:1057500007E000F099F904E000F0A6F901E000F09C
:10576000D1F82078072813D100255E4606EB850086
:1057700036F8252043884FA126A8FAF71BFE64239C
:105780001B2226A93448FEF7E8FA6D1CFA2DEDDB42
:105790002078A24601283DD13A4C0025206A00F02D
:1057A00019FE236B642293FBF2F693FBF2F902FBE2
:1057B0001637E36AD4F8288093FBF2F693FBF2FCE9
:1057C00002FB163698FBF2F302FB138398FBF2F20E
:1057D000002FCDE9040100DA7F42002E00DA764284
:1057E000CDF800C00397CDE90169002B00DA5B42D8
:1057F00036A109A8FAF7DEFD09A8FAF731FF82B24F
:1058000009A91548FEF73CFB6420FCF7BDFC6D1CA4
:10581000642DC3DB9AF8000003287FF435AFFFF74F
:105820004CFE00244FEA0B0505EB840035F82420DC
:10583000438820A126A8FAF7BDFD64231B2226A9D0
:105840000548FEF78AFA641CFA2CEDDB1CE7000021
:10585000C00A002018090020080B0020980B002027
:10586000E8090020780A0020300A00204C090020B6
:105870000000000000007A444260E53B48E13A3F06
:10588000FE0400205C000020000000000060784062
:105890009A9999999999A93F000000000000244025
:1058A000256C642C256C642C252E33662C252E3318
:1058B000660A0000616E676C653A256420206469A1
:1058C0007374616E63653A2564200000526F6C6CDE
:1058D0003A2025642E253032642C20506974636888
:1058E0003A2025642E253032642C205961773A20E5
:1058F00025642E253032642C20677A3A252E3266B4
:105900000D0A000000B50021012000F0DDF80021A3
:1059100002205DF804EB00F0D7B8000010B5044693
:105920002DED048B014688B0B0EE408A012000F0D6
:10593000CBF8FCF783F8B0EE409AF0EE609A4FF4A3
:10594000C871012000F0C0F8B6EE000A9FED142ADD
:1059500038EE408ADFED131A9FED131ADFED130ABC
:105960009FED130A6846FEF7C1FF51EC190B00F0DA
:10597000EDF800EE900AB0EE480A6846FEF778FFB0
:10598000FDEEC00A10EE900A204401B2143909B2AB
:10599000012000F099F808B0BDEC048B10BD0000A8
:1059A00000007AC400007A4400000000B81E053EE2
:1059B0009A99993F10B504462DED048B014688B0A5
:1059C000B0EE408A022000F07FF8FCF75DF8B0EE00
:1059D000409AF0EE609A4FF4C871022000F074F81B
:1059E0009FED122ADFED121A9FED121ADFED120A57
:1059F0009FED120A6846FEF779FF51EC190B00F093
:105A0000A5F800EE900AB0EE480A6846FEF730FFAF
:105A1000FDEEC00A10EE900A204401B2022000F010
:105A200053F808B0BDEC048B10BD000000007AC430
:105A300000007A4400000000B81E053E6666A63FDE
:105A400010B540422DED028B00B2B0EE408A044604
:105A5000FFF764FFB0EE480ABDEC028B2046BDE8BC
:105A60001040FFF7A7BF10B504462DED028BB0EE36
:105A7000408AFFF753FFB0EE480ABDEC028B204688
:105A8000BDE81040FFF796BF10B5B3EE040A054815
:105A9000FFF744FFBDE81040B3EE020A4FF4AF70C9
:105AA000FFF788BF70FEFFFF10B5B3EE020A4FF498
:105AB000AF70FFF733FFBDE81040B3EE040A0148B2
:105AC000FFF778BF70FEFFFF10B54FF47A72914276
:105AD00002DC5242914200DA1146104A00230128AA
